:1000000008308A00002800000A108A100A118207AE
:100010003734383439342F34343435343634583472
:100020003134323433342D342A3430343D342B34AB
:10003000C2244527D622CE24C427A1100A00872235
:10004000EC34EA30A03AEE30A037F031E9376E00F8
:100050000C00CD37F43772106110D030F3377300D5
:100060000C00C330EC31753661326F396100872482
:10007000EE33F232F3322037F536A01800010C00CF
:100080008724EE33F232F332A037F032F230E33429
:100090006F3700010C008724EE33F232F332203741
:1000A000F536201900010C000C000C000C0007298B
:1000B000E539653AA0316F37A027CE1743000C0011
:1000C00043346139A0302024452C00010C006937ED
:1000D0006739E5396510D630EC37721D00010C0028
:1000E0000C00C3376E3B6939F4346537E4370001DF
:1000F0000C000729E539653AA0316F37A027CE17E4
:1001000043000C00CE37F43073000C00C3376E3A56
:1001100061326F3900010C000C000C00C430F43760
:1001200073000C000C004334F234733AE9306E1063
:10013000521720242E000A19B018381AB81A381984
:1001400000010C00CD30F2316F105217A0232E00A9
:100150000A19B018B8193019B71C00004C308400C7
:10016000831300080319C2280130F800F701F70BC8
:10017000B728F80BB6284A30F700F70BBD28C0287F
:10018000800BB4280800430EF039F7000F30080543
:100190007704880000000814CD280810080008081B
:1001A000F700080E0F39F8000800831608108810B1
:1001B0000811831288100F3083160805F038880064
:1001C00083120815000008140000CF207808C3002F
:1001D0000810000008140000CF207808C2000810A2
:1001E0000F308316080588008312430EF700F030A5
:1001F000F70577084204F8007808C200C21BDB2824
:10020000401C8810401888140000081100000810D5
:10021000410EC2000F30C2054208C300C32041088E
:100220000F39C200C300C32008002830B5000C30CD
:10023000B6000130B7000630B80008108810081169
:100240000F308316080588000810881008110F3039
:100250008312CC00AE200130B4003408033C031CF0
:1002600039290330C300C3200530CC00AE20B40AC6
:100270002D290230C300C3200530CC00AE20B401CC
:100280003408033C031C50293530340784008313A1
:100290000008B900C0013908C100D520B40A4029BE
:1002A0008A150A1217283D0B562959294030BE00DD
:1002B0005A29BE0101303C02BE073E088038BF000B
:1002C000C0013F08C100D52008003B08073A0319C8
:1002D00073290B3A03197829063A03198029023A3F
:1002E000031986298B290130BC00BD0053219029B8
:1002F000C0010130C100D5200230CC00AE209029D1
:100300000130BC000230BD0053219029C0011030E3
:10031000C100D52090290130C0003B08C100D52084
:1003200008000B08B5008B13831603178C170C14E9
:100330000000000083120313B51B8B1703170C0872
:100340007F390319E5290313B50003170D080313BB
:10035000B60003170F080313B7003508BB0065216B
:10036000360803178D000313370803178F00031394
:100370000B08B8008B13831603178C170C1400009E
:10038000000083120313B81B8B1703170C0D0E0DFF
:100390007F390319E5290313B50003170D0803136B
:1003A000B60003170F080313B7003508BB0065211B
:1003B000360803178D000313370803178F008D0AC3
:1003C00003198F0A03139129031703130800B401BB
:1003D000A00A2008213C0318472A2308FC3E0318E2
:1003E0000A2A043E4E2AEF308316860083128600C6
:1003F0000A2ADF3083168600831286000A2ABF305D
:1004000083168600831286000A2A7F3083168600B0
:1004100083128600211C162A06080F390F3C031D83
:10042000152A21102208B400A201462A06080F3915
:100430000F3C0319412A06080139031D212AB50181
:10044000352A06080239031D282A0130B500352A4D
:1004500006080439031D2F2A0230B500352A060884
:100460000839031D352A0330B500350DF700F70DA7
:10047000FC30F705770823070420F800A2002114B8
:10048000462AA30A2308043C0319A301A001FF3054
:100490008316860083123408F80008000A108A14B4
:1004A0000A118207F329F929FF29052A350B732A36
:1004B0000130B60036083402031C722A24102408C6
:1004C00083168700831207140A30CC00AE20241054
:1004D000240883168700831207100A30CC00AE2050
:1004E000B60A5A2A8D2A0130B70037083402031C95
:1004F0008D2AA410240883168700831287140A30DB
:10050000CC00AE20A4102408831687008312871025
:100510000A30CC00AE20B70A752A08003C08F80162
:100520003B020318962A3B08F700A22AF70108307D
:10053000BD00BB0DF70D3C0877020318F700F80D5E
:10054000BD0B992A08002030361E3030B700350820
:10055000F700B51FB32AF709F70A7708B5002D3061
:10056000B700B61736143508BB006430BC008E22C5
:100570007708B50030307807B8003508BB000A307E
:10058000BC008E2230307707BA0030307807B900CF
:100590003708F700303038020319D22AB614B61BD8
:1005A0003615E62A3708B8002030B7003030390257
:1005B0000319DE2A3614B61BB614E62A031D3614B8
:1005C000031DE62A3808B9002030B8003619ED2A94
:1005D000B618F02A3618F32AF62A3708BB00652128
:1005E0003808BB0065213908BB0065213A08BB000B
:1005F00065210800F701F801350803103618F707E0
:10060000F70CF80CB618F707F70CF80C3619F707C3
:10061000F70CF80CB619F707F70CF80C361AF707B1
:10062000F70CF80CB61AF707F70CF80C361BF7079F
:10063000F70CF80CB61BF707F70CF80C0800B51B05
:10064000312B0F30F700340EF7050A30770203180C
:100650002C2B3030F7072E2B3508F7077708BB0017
:1006600065210F30B4050A3034020318392B3030BD
:100670003B2BB5133508B4073408BB0065218A1538
:100680000A122E2A8318472B573084008313F70150
:10069000F801F901FA01D701D801D901DA015608A8
:1006A0005504540453040319852B2030DB00031038
:1006B000CF0DD00DD10DD20DD70DD80DD90DDA0D2E
:1006C00056085A02031D6E2B55085902031D6E2B46
:1006D00054085802031D6E2B53085702031C7F2B2E
:1006E0005308D7025408031C540FD8025508031CA2
:1006F000550FD9025608031C560FDA020314F70DE2
:10070000F80DF90DFA0DDB0B572B57088000840A02
:1007100058088000840A59088000840A5A0880001A
:100720000800F801F901F701FA014A08031D9B2BA3
:1007300049080319B52B1030CB000310C70DC80DA5
:10074000F70DFA0D4A087A02031DA82B4908770213
:10075000031CB12B4908F702031CFA034A08FA02EA
:100760000314F80DF90DCB0B9D2B0800CB014808A5
:100770004B020318C02BFA30CC00AE20CB0AB72BAB
:100780004708CC00AE20CB014A084B020318D02BFF
:100790005230F700F70BCA2BCD2B0000CB0AC42B2D
:1007A0004908CC001230CC02031CE52B4C308400ED
:1007B0008313FC3080050310800C800C00080319A3
:1007C000E52BE32B0000800BE22B08008310D20105
:1007D0000F30D1004230D0004030CF00D601D501DB
:1007E0003608D4003508D30042237A08CA007908B5
:1007F000C9007808C8007708C7000310CA0CC90CE4
:10080000C80CC70C0A304702B9004808BA000030CB
:10081000031C0130BA024908BB000030031C013040
:10082000BB024A08BC000030031C0130BC0283102C
:100830003C08D2003B08D1003A08D0003908CF006C
:10084000D601D5010330D400E830D3004223780824
:10085000BE007708BD003E08C8003D08C700CA01B9
:10086000FA30C90091237808C2003E08C8003D084C
:10087000C700CA01FA30C90091237708C300831466
:100880004730840083133C08D2003B08D1003A086B
:10089000D0003908CF00D601D5010330D400E830AC
:1008A000D30042234808C0004708BF004008C800E2
:1008B0003F08C700CA01FA30C90091237808C10077
:1008C0004008C8003F08C700CA01FA30C900912398
:1008D0007708C400CA01C9013808C8003708C70032
:1008E0004A08CE004908CD004808CC004708CB0094
:1008F000D201D1010330D000E830CF002030D70042
:10090000D301D401D501D6014E08FA004D08F900F3
:100910004C08F8004B08F7000310771C9D2C4F087B
:10092000D30750080318500FD40751080318510F6C
:10093000D50752080318520FD607D60CD50CD40C85
:10094000D30CFA0CF90CF80CF70CD70B8C2C7A089A
:10095000CA007908C9007808C8007708C700831062
:10096000D2010F30D1004230D0004030CF00D6014C
:10097000D5013608D4003508D30042237A08CE00CA
:100980007908CD007808CC007708CB0083104A089E
:10099000D2004908D1004808D0004708CF007A08A3
:1009A000D6007908D5007808D4007708D300422310
:1009B0007808C6007708C5004608FA0045080319FC
:1009C000C603C503C7007A08C800C708031DEB2C7F
:1009D000C80803190A2D4308C7004208C800440884
:1009E000C9004108CA00B6232411240883168700D1
:1009F000831207154308C7004208C8004408C9000D
:100A00004108CA00B62324112408831687008312E4
:100A10000711DC2C080031303402F73E0318622D38
:100A2000093E652DB830B6000230B500B8010A3075
:100A3000B700E623622D9F30B6000230B500B80142
:100A40000A30B700E623622D1530B6000230B5003B
:100A5000B8010A30B700E623622D3730B600023005
:100A6000B500B8010A30B700E623622D5D30B6004C
:100A70000230B500B8010A30B700E623622DB83065
:100A8000B6000230B500B8010A30B700E623622D87
:100A9000B830B6000230B500B8010A30B700E6231E
:100AA000622D4A30B6000230B500B8010A30B700F6
:100AB000E623622D2630B6000230B500B8010A30B8
:100AC000B700E6238A150A12732A0A148A100A1537
:100AD0008207122D1B2D242D2D2D362D3F2D482D17
:100AE000512D5A2D78083408BB006430BC008E228A
:100AF0007708B40078083030031D852DB51C8C2D87
:100B0000B5198C2D351A2030882DB51135123514B4
:100B1000F8077808BB0065213408BB000A30BC0028
:100B20008E227708B40078083030031D9D2DB5194A
:100B3000A12D351CA12D351A2030F8077808BB00EF
:100B400065213030B4073408BB0065210800340B40
:100B5000BF2D923003178D0000308F0003139121B9
:100B6000933003178D0000308F00031391219B30C9
:100B700003178D0000308F0003139121D42DA13075
:100B800003178D0000308F0003139121A23003174B
:100B90008D0000308F0003139121A83003178D00C2
:0A0BA00000308F00031391210800BC
:1010000003081F398300FF30A40083161F149F14A8
:101010001F159F1107309C0083138312A00121101C
:10102000A201A301831681138A11831215298A153F
:10103000183003178D0000308F008A11031391219F
:101040008A150430B400FA30CC008A11AE208A151B
:10105000B40B23281F3003178D0000308F008A1136
:10106000031391218A158A11E7218A157808A500B2
:1010700031302502FA3E0318032B063E052B28309B
:1010800003178D0000308F008A11031391218A15F8
:10109000293003178D0000308F008A11031391212E
:1010A0008A1525082A3C031971288A11E7218A1517
:1010B0007808A5002508313C031D65286430B4007C
:1010C0000130B5008A1156228A152508333C031DCC
:1010D00070286430B4000230B5008A1156228A1597
:1010E0005128032B303003178D0000308F008A11F8
:1010F000031391218A15313003178D0000308F00C2
:101100008A11031391218A150C30B400FA30CC00F7
:101110008A11AE208A15B40B86288A11E7218A1518
:101120007808A50025082A3C03197C2937300317C5
:101130008D0000308F008A11031391218A158A11C6
:10114000E7218A157808A600A608031996283F30DB
:1011500003178D0000308F008A11031391218A1527
:10116000403003178D0000308F008A110313912146
:101170008A158A11E7218A157808A800A80803199A
:10118000B0284A3003178D0000308F008A110313F6
:1011900091218A154B3003178D0000308F008A1182
:1011A000031391218A158A11E7218A157808A7006F
:1011B000A7080319CA2830302602A90030302702B8
:1011C000AA0028082B3A0319EF28063A03190B291D
:1011D000753A03192729773A031949296A2953309F
:1011E00003178D0000308F008A11031391218A1597
:1011F0002A082907B400B5001830B6008A11A322C6
:101200008A151430B400FA30CC008A11AE208A1549
:10121000B40B03296A29543003178D0000308F0066
:101220008A11031391218A152A082902B400B500F6
:101230001830B6008A11A3228A151430B400FA308F
:10124000CC008A11AE208A15B40B1F296A295530AB
:1012500003178D0000308F008A11031391218A1526
:101260002908B5002A08B6008A11FA228A157808DA
:10127000B400B5001830B6008A11A3228A151430C4
:10128000B400FA30CC008A11AE208A15B40B412983
:101290006A29563003178D0000308F008A1103131E
:1012A00091218A152908BB002A08BC008A118E22C8
:1012B0008A157808B400B5001830B6008A11A32248
:1012C0008A151430B400FA30CC008A11AE208A1589
:1012D000B40B6329573003178D0000308F008A113B
:1012E000031391218A158A11E7218A157808A50030
:1012F000A50803196A299228032B5F3003178D0074
:1013000000308F008A11031391218A156030031772
:101310008D0000308F008A11031391218A1504304B
:10132000B400FA30CC008A11AE208A15B40B912992
:101330008A11E7218A157808A50025082A3C031997
:10134000532AAB01663003178D0000308F008A11DD
:10135000031391218A15673003178D0000308F0029
:101360008A11031391218A150230B400FA30CC009F
:101370008A11AE208A15B40BB6296F3003178D0081
:1013800000308F008A11031391218A158A11E721F9
:101390008A157808A500A5080319E3292C302B0726
:1013A00084008313250880002508BB008A1165216D
:1013B0008A15AB0A0430B400FA30CC008A11AE2092
:1013C0008A15B40BDC2925083D3C031DC6293030A5
:1013D0002C02AF0030302D02B00030302E02B100B0
:1013E000703003178D0000308F008A110313912194
:1013F0008A15713003178D0000308F008A11031396
:1014000091218A152F08B5006430B6008A11FA229E
:101410008A157808B4003008B5000A30B6008A1181
:10142000FA228A15780834073107B2000430B40074
:10143000FA30CC008A11AE208A15B40B182A783005
:1014400003178D0000308F008A11031391218A1534
:101450003208B4003730B5008A111F2B8A151430BA
:10146000B400FA30CC008A11AE208A15B40B312AB0
:101470000430B400FA30CC008A11AE208A15B40BC7
:101480003A2A793003178D0000308F008A11031338
:1014900091218A158A11E7218A157808A500A508E7
:1014A0000319412A9D29032B813003178D00003039
:1014B0008F008A11031391218A15823003178D0042
:1014C00000308F008A11031391218A1525082A3CC8
:1014D0000319752A8A11E7218A157808A5002508BD
:1014E000B4008A110B2D8A15662A032B8530031749
:1014F0008D0000308F008A11031391218A158630E8
:1015000003178D0000308F008A11031391218A1573
:101510008A11E7218A157808A500B30125082A3C1D
:101520000319D42A8A11E7218A157808A50025080D
:101530002B3C031DB52AB30A8B3003178D000030F6
:101540008F008A11031391218A153308B4001330D8
:10155000B5008A1172258A150230B400FA30CC0029
:101560008A11AE208A15B40BAE2A25082D3C031D26
:10157000D32AB3038C3003178D0000308F008A11FB
:10158000031391218A153308B4001330B5008A1172
:1015900072258A150230B400FA30CC008A11AE20D0
:1015A0008A15B40BCC2A8E2A032B8D3003178D009D
:1015B00000308F008A11031391218A158E30031792
:1015C0008D0000308F008A11031391218A152508A0
:1015D0002A3C0319032B8A11E7218A157808A500F4
:1015E00025083D3C031DF92A0130B4008A11A725C6
:1015F0008A1525082B3C031D022B0230B4008A11EA
:10160000A7258A15E72A2A2863000A148A140A11D2
:0E16100082073F2872287D29542A762AD52A7F
:02400E00313F40
:00000001FF
;PIC16F877A
;CRC=9976  CREATED="15-oct.-21 22:48"
